<!DOCTYPE html><html lang="en"><head><meta charset="utf-8"><meta name="viewport" content="width=device-width, initial-scale=1.0"><meta name="generator" content="rustdoc"><meta name="description" content="Source to the Rust file `src/bitcoin/datatypes/tx.rs`."><meta name="keywords" content="rust, rustlang, rust-lang"><title>tx.rs.html -- source</title><link rel="stylesheet" type="text/css" href="../../../../normalize.css"><link rel="stylesheet" type="text/css" href="../../../../rustdoc.css" id="mainThemeStyle"><link rel="stylesheet" type="text/css" href="../../../../dark.css"><link rel="stylesheet" type="text/css" href="../../../../light.css" id="themeStyle"><script src="../../../../storage.js"></script><noscript><link rel="stylesheet" href="../../../../noscript.css"></noscript><link rel="shortcut icon" href="../../../../favicon.ico"><style type="text/css">#crate-search{background-image:url("../../../../down-arrow.svg");}</style></head><body class="rustdoc source"><!--[if lte IE 8]><div class="warning">This old browser is unsupported and will most likely display funky things.</div><![endif]--><nav class="sidebar"><div class="sidebar-menu">&#9776;</div><a href='../../../../fiatproof/index.html'><img src='../../../../rust-logo.png' alt='logo' width='100'></a></nav><div class="theme-picker"><button id="theme-picker" aria-label="Pick another theme!"><img src="../../../../brush.svg" width="18" alt="Pick another theme!"></button><div id="theme-choices"></div></div><script src="../../../../theme.js"></script><nav class="sub"><form class="search-form js-only"><div class="search-container"><div><select id="crate-search"><option value="All crates">All crates</option></select><input class="search-input" name="search" autocomplete="off" spellcheck="false" placeholder="Click or press ‘S’ to search, ‘?’ for more options…" type="search"></div><a id="settings-menu" href="../../../../settings.html"><img src="../../../../wheel.svg" width="18" alt="Change settings"></a></div></form></nav><section id="main" class="content"><pre class="line-numbers"><span id="1">  1</span>
<span id="2">  2</span>
<span id="3">  3</span>
<span id="4">  4</span>
<span id="5">  5</span>
<span id="6">  6</span>
<span id="7">  7</span>
<span id="8">  8</span>
<span id="9">  9</span>
<span id="10"> 10</span>
<span id="11"> 11</span>
<span id="12"> 12</span>
<span id="13"> 13</span>
<span id="14"> 14</span>
<span id="15"> 15</span>
<span id="16"> 16</span>
<span id="17"> 17</span>
<span id="18"> 18</span>
<span id="19"> 19</span>
<span id="20"> 20</span>
<span id="21"> 21</span>
<span id="22"> 22</span>
<span id="23"> 23</span>
<span id="24"> 24</span>
<span id="25"> 25</span>
<span id="26"> 26</span>
<span id="27"> 27</span>
<span id="28"> 28</span>
<span id="29"> 29</span>
<span id="30"> 30</span>
<span id="31"> 31</span>
<span id="32"> 32</span>
<span id="33"> 33</span>
<span id="34"> 34</span>
<span id="35"> 35</span>
<span id="36"> 36</span>
<span id="37"> 37</span>
<span id="38"> 38</span>
<span id="39"> 39</span>
<span id="40"> 40</span>
<span id="41"> 41</span>
<span id="42"> 42</span>
<span id="43"> 43</span>
<span id="44"> 44</span>
<span id="45"> 45</span>
<span id="46"> 46</span>
<span id="47"> 47</span>
<span id="48"> 48</span>
<span id="49"> 49</span>
<span id="50"> 50</span>
<span id="51"> 51</span>
<span id="52"> 52</span>
<span id="53"> 53</span>
<span id="54"> 54</span>
<span id="55"> 55</span>
<span id="56"> 56</span>
<span id="57"> 57</span>
<span id="58"> 58</span>
<span id="59"> 59</span>
<span id="60"> 60</span>
<span id="61"> 61</span>
<span id="62"> 62</span>
<span id="63"> 63</span>
<span id="64"> 64</span>
<span id="65"> 65</span>
<span id="66"> 66</span>
<span id="67"> 67</span>
<span id="68"> 68</span>
<span id="69"> 69</span>
<span id="70"> 70</span>
<span id="71"> 71</span>
<span id="72"> 72</span>
<span id="73"> 73</span>
<span id="74"> 74</span>
<span id="75"> 75</span>
<span id="76"> 76</span>
<span id="77"> 77</span>
<span id="78"> 78</span>
<span id="79"> 79</span>
<span id="80"> 80</span>
<span id="81"> 81</span>
<span id="82"> 82</span>
<span id="83"> 83</span>
<span id="84"> 84</span>
<span id="85"> 85</span>
<span id="86"> 86</span>
<span id="87"> 87</span>
<span id="88"> 88</span>
<span id="89"> 89</span>
<span id="90"> 90</span>
<span id="91"> 91</span>
<span id="92"> 92</span>
<span id="93"> 93</span>
<span id="94"> 94</span>
<span id="95"> 95</span>
<span id="96"> 96</span>
<span id="97"> 97</span>
<span id="98"> 98</span>
<span id="99"> 99</span>
<span id="100">100</span>
<span id="101">101</span>
<span id="102">102</span>
<span id="103">103</span>
<span id="104">104</span>
<span id="105">105</span>
<span id="106">106</span>
<span id="107">107</span>
<span id="108">108</span>
<span id="109">109</span>
<span id="110">110</span>
<span id="111">111</span>
<span id="112">112</span>
<span id="113">113</span>
<span id="114">114</span>
<span id="115">115</span>
<span id="116">116</span>
<span id="117">117</span>
<span id="118">118</span>
<span id="119">119</span>
<span id="120">120</span>
<span id="121">121</span>
<span id="122">122</span>
<span id="123">123</span>
<span id="124">124</span>
<span id="125">125</span>
<span id="126">126</span>
<span id="127">127</span>
<span id="128">128</span>
<span id="129">129</span>
<span id="130">130</span>
<span id="131">131</span>
<span id="132">132</span>
<span id="133">133</span>
</pre><div class="example-wrap"><pre class="rust ">
<span class="kw">use</span> <span class="kw">super</span>::{<span class="ident">UInt256</span>, <span class="ident">TxIn</span>, <span class="ident">TxOut</span>, <span class="ident">LockTime</span>};

<span class="attribute">#[<span class="ident">derive</span>(<span class="ident">Debug</span>,<span class="ident">Default</span>,<span class="ident">Clone</span>)]</span>
<span class="kw">pub</span> <span class="kw">struct</span> <span class="ident">Tx</span> {
   <span class="kw">pub</span> <span class="ident">version</span>:  <span class="ident">i32</span>,
   <span class="kw">pub</span> <span class="ident">ins</span>:      <span class="ident">Vec</span><span class="op">&lt;</span><span class="ident">TxIn</span><span class="op">&gt;</span>,
   <span class="kw">pub</span> <span class="ident">outs</span>:     <span class="ident">Vec</span><span class="op">&lt;</span><span class="ident">TxOut</span><span class="op">&gt;</span>,
   <span class="kw">pub</span> <span class="ident">locktime</span>: <span class="ident">LockTime</span>,
}

<span class="kw">const</span> <span class="ident">TRANSACTION_CURRENT_VERSION</span>:<span class="ident">i32</span> <span class="op">=</span> <span class="number">1i32</span>;

<span class="kw">impl</span> <span class="ident">Tx</span> {
   <span class="kw">pub</span> <span class="kw">fn</span> <span class="ident">new_null</span>() <span class="op">-&gt;</span> <span class="self">Self</span> {
      <span class="ident">Tx</span> {
         <span class="ident">version</span>:  <span class="ident">TRANSACTION_CURRENT_VERSION</span>,
         <span class="ident">ins</span>:      <span class="ident">Vec</span>::<span class="op">&lt;</span><span class="ident">TxIn</span><span class="op">&gt;</span>::<span class="ident">new</span>(), 
         <span class="ident">outs</span>:     <span class="ident">Vec</span>::<span class="op">&lt;</span><span class="ident">TxOut</span><span class="op">&gt;</span>::<span class="ident">new</span>(), 
         <span class="ident">locktime</span>: <span class="ident">LockTime</span>::<span class="ident">NoLock</span>,
      }
   }
   <span class="kw">pub</span> <span class="kw">fn</span> <span class="ident">is_coin_base</span>(<span class="kw-2">&amp;</span><span class="self">self</span>) <span class="op">-&gt;</span> <span class="ident">bool</span> {
      <span class="self">self</span>.<span class="ident">ins</span>.<span class="ident">len</span>() <span class="op">==</span> <span class="number">1</span> <span class="op">&amp;&amp;</span> <span class="self">self</span>.<span class="ident">ins</span>[<span class="number">0</span>].<span class="ident">prevout</span>.<span class="ident">is_null</span>()
   }
   <span class="kw">pub</span> <span class="kw">fn</span> <span class="ident">is_null</span>(<span class="kw-2">&amp;</span><span class="self">self</span>) <span class="op">-&gt;</span> <span class="ident">bool</span> {
      <span class="self">self</span>.<span class="ident">ins</span>.<span class="ident">len</span>() <span class="op">==</span> <span class="number">0</span> <span class="op">&amp;&amp;</span> <span class="self">self</span>.<span class="ident">outs</span>.<span class="ident">len</span>() <span class="op">==</span> <span class="number">0</span>
   }
   <span class="kw">pub</span> <span class="kw">fn</span> <span class="ident">get_hash</span>(<span class="kw-2">&amp;</span><span class="self">self</span>) <span class="op">-&gt;</span> ::<span class="prelude-ty">Result</span><span class="op">&lt;</span><span class="ident">UInt256</span><span class="op">&gt;</span> {
      <span class="kw">let</span> <span class="ident">b</span> <span class="op">=</span> ::<span class="ident">ui</span>::<span class="ident">bitcoin</span>::<span class="ident">serialize</span>(<span class="self">self</span>, <span class="kw-2">&amp;</span>())<span class="question-mark">?</span>;
      <span class="kw">let</span> <span class="ident">b</span> <span class="op">=</span> ::<span class="ident">ui</span>::<span class="ident">create_dhash256</span>().<span class="ident">u8_to_u8</span>(<span class="ident">b</span>);
      <span class="prelude-val">Ok</span>(<span class="ident">UInt256</span>::<span class="ident">new</span>(<span class="ident">b</span>.<span class="ident">as_ref</span>()))
   }
}

<span class="kw">impl</span> ::<span class="ident">std</span>::<span class="ident">fmt</span>::<span class="ident">Display</span> <span class="kw">for</span> <span class="ident">Tx</span> {
   <span class="kw">fn</span> <span class="ident">fmt</span>(<span class="kw-2">&amp;</span><span class="self">self</span>, <span class="ident">f</span>: <span class="kw-2">&amp;</span><span class="kw-2">mut</span> ::<span class="ident">std</span>::<span class="ident">fmt</span>::<span class="ident">Formatter</span>) <span class="op">-&gt;</span> ::<span class="ident">std</span>::<span class="ident">fmt</span>::<span class="prelude-ty">Result</span> {
      <span class="macro">write</span><span class="macro">!</span>(<span class="ident">f</span>, <span class="string">&quot;Tx(ver={}, ins={}, outs={}, locktime={:?})&quot;</span>, <span class="self">self</span>.<span class="ident">version</span>, <span class="self">self</span>.<span class="ident">ins</span>.<span class="ident">len</span>(), <span class="self">self</span>.<span class="ident">outs</span>.<span class="ident">len</span>(), <span class="self">self</span>.<span class="ident">locktime</span>)
   }
}

<span class="kw">use</span> ::<span class="ident">iostream</span>::{ <span class="ident">WriteStream</span>, <span class="ident">ReadStream</span> };
<span class="kw">use</span> ::<span class="ident">bitcoin</span>::<span class="ident">serialize</span>::{
   <span class="ident">Serializer</span> <span class="kw">as</span> <span class="ident">BitcoinSerializer</span>,
   <span class="ident">Serializee</span> <span class="kw">as</span> <span class="ident">BitcoinSerializee</span>,
   <span class="ident">Deserializer</span> <span class="kw">as</span> <span class="ident">BitcoinDeserializer</span>,
   <span class="ident">Deserializee</span> <span class="kw">as</span> <span class="ident">BitcoinDeserializee</span>,
};
<span class="kw">impl</span> <span class="ident">BitcoinSerializee</span> <span class="kw">for</span> <span class="ident">Tx</span> {
   <span class="kw">type</span> <span class="ident">P</span> <span class="op">=</span> ();
   <span class="kw">fn</span> <span class="ident">serialize</span>(<span class="kw-2">&amp;</span><span class="self">self</span>, <span class="ident">_p</span>:<span class="kw-2">&amp;</span><span class="self">Self</span>::<span class="ident">P</span>, <span class="ident">e</span>:<span class="kw-2">&amp;</span><span class="ident">BitcoinSerializer</span>, <span class="ident">ws</span>:<span class="kw-2">&amp;</span><span class="kw-2">mut</span> <span class="ident">WriteStream</span>) <span class="op">-&gt;</span> ::<span class="prelude-ty">Result</span><span class="op">&lt;</span><span class="ident">usize</span><span class="op">&gt;</span> {
      <span class="kw">let</span> <span class="kw-2">mut</span> <span class="ident">r</span>:<span class="ident">usize</span> <span class="op">=</span> <span class="number">0</span>;
      <span class="ident">r</span> <span class="op">+=</span> <span class="macro">try</span><span class="macro">!</span>(<span class="ident">e</span>.<span class="ident">serialize_i32le</span>(<span class="ident">ws</span>, <span class="self">self</span>.<span class="ident">version</span>));
      <span class="ident">r</span> <span class="op">+=</span> <span class="macro">try</span><span class="macro">!</span>(<span class="ident">e</span>.<span class="ident">serialize_var_array</span>(<span class="kw-2">&amp;</span>(), <span class="ident">ws</span>, <span class="self">self</span>.<span class="ident">ins</span>.<span class="ident">as_slice</span>(), ::<span class="ident">std</span>::<span class="ident">usize</span>::<span class="ident">MAX</span>));
      <span class="ident">r</span> <span class="op">+=</span> <span class="macro">try</span><span class="macro">!</span>(<span class="ident">e</span>.<span class="ident">serialize_var_array</span>(<span class="kw-2">&amp;</span>(), <span class="ident">ws</span>, <span class="self">self</span>.<span class="ident">outs</span>.<span class="ident">as_slice</span>(), ::<span class="ident">std</span>::<span class="ident">usize</span>::<span class="ident">MAX</span>));
      <span class="ident">r</span> <span class="op">+=</span> <span class="macro">try</span><span class="macro">!</span>(<span class="self">self</span>.<span class="ident">locktime</span>.<span class="ident">serialize</span>(<span class="kw-2">&amp;</span>(), <span class="ident">e</span>, <span class="ident">ws</span>));
      <span class="prelude-val">Ok</span>(<span class="ident">r</span>)
   }
}
<span class="kw">impl</span> <span class="ident">BitcoinDeserializee</span> <span class="kw">for</span> <span class="ident">Tx</span> {
   <span class="kw">type</span> <span class="ident">P</span> <span class="op">=</span> ();
   <span class="kw">fn</span> <span class="ident">deserialize</span>(<span class="kw-2">&amp;</span><span class="kw-2">mut</span> <span class="self">self</span>, <span class="ident">_p</span>:<span class="kw-2">&amp;</span><span class="self">Self</span>::<span class="ident">P</span>, <span class="ident">d</span>:<span class="kw-2">&amp;</span><span class="ident">BitcoinDeserializer</span>, <span class="ident">rs</span>:<span class="kw-2">&amp;</span><span class="kw-2">mut</span> <span class="ident">ReadStream</span>) <span class="op">-&gt;</span> ::<span class="prelude-ty">Result</span><span class="op">&lt;</span><span class="ident">usize</span><span class="op">&gt;</span> {
      <span class="kw">let</span> <span class="kw-2">mut</span> <span class="ident">r</span>:<span class="ident">usize</span> <span class="op">=</span> <span class="number">0</span>;
      <span class="ident">r</span> <span class="op">+=</span> <span class="macro">try</span><span class="macro">!</span>(<span class="ident">d</span>.<span class="ident">deserialize_i32le</span>(<span class="ident">rs</span>, <span class="kw-2">&amp;</span><span class="kw-2">mut</span> <span class="self">self</span>.<span class="ident">version</span>));
      <span class="ident">r</span> <span class="op">+=</span> <span class="macro">try</span><span class="macro">!</span>(<span class="ident">d</span>.<span class="ident">deserialize_var_array</span>(<span class="kw-2">&amp;</span>(), <span class="ident">rs</span>, <span class="kw-2">&amp;</span><span class="kw-2">mut</span> <span class="self">self</span>.<span class="ident">ins</span>, ::<span class="ident">std</span>::<span class="ident">usize</span>::<span class="ident">MAX</span>));
      <span class="ident">r</span> <span class="op">+=</span> <span class="macro">try</span><span class="macro">!</span>(<span class="ident">d</span>.<span class="ident">deserialize_var_array</span>(<span class="kw-2">&amp;</span>(), <span class="ident">rs</span>, <span class="kw-2">&amp;</span><span class="kw-2">mut</span> <span class="self">self</span>.<span class="ident">outs</span>, ::<span class="ident">std</span>::<span class="ident">usize</span>::<span class="ident">MAX</span>));
      <span class="ident">r</span> <span class="op">+=</span> <span class="macro">try</span><span class="macro">!</span>(<span class="self">self</span>.<span class="ident">locktime</span>.<span class="ident">deserialize</span>(<span class="kw-2">&amp;</span>(), <span class="ident">d</span>, <span class="ident">rs</span>));
      <span class="prelude-val">Ok</span>(<span class="ident">r</span>)
   }
}

<span class="attribute">#[<span class="ident">test</span>]</span>
<span class="kw">fn</span> <span class="ident">test_deserialize_transaction</span>() {
   <span class="kw">use</span> <span class="kw">super</span>::<span class="ident">Tx</span>;
   <span class="kw">let</span> <span class="ident">hex</span> <span class="op">=</span> <span class="string">&quot;0100000002d8c8df6a6fdd2addaf589a83d860f18b44872d13ee6ec3526b2b470d42a96d4d000000008b483045022100b31557e47191936cb14e013fb421b1860b5e4fd5d2bc5ec1938f4ffb1651dc8902202661c2920771fd29dd91cd4100cefb971269836da4914d970d333861819265ba014104c54f8ea9507f31a05ae325616e3024bd9878cb0a5dff780444002d731577be4e2e69c663ff2da922902a4454841aa1754c1b6292ad7d317150308d8cce0ad7abffffffff2ab3fa4f68a512266134085d3260b94d3b6cfd351450cff021c045a69ba120b2000000008b4830450220230110bc99ef311f1f8bda9d0d968bfe5dfa4af171adbef9ef71678d658823bf022100f956d4fcfa0995a578d84e7e913f9bb1cf5b5be1440bcede07bce9cd5b38115d014104c6ec27cffce0823c3fecb162dbd576c88dd7cda0b7b32b0961188a392b488c94ca174d833ee6a9b71c0996620ae71e799fc7c77901db147fa7d97732e49c8226ffffffff02c0175302000000001976a914a3d89c53bb956f08917b44d113c6b2bcbe0c29b788acc01c3d09000000001976a91408338e1d5e26db3fce21b011795b1c3c8a5a5d0788ac00000000&quot;</span>;

   <span class="kw">let</span> <span class="ident">tx</span> <span class="op">=</span> ::<span class="ident">ui</span>::<span class="ident">bitcoin</span>::<span class="ident">hex_to_tx</span>(<span class="ident">hex</span>);
   <span class="macro">assert_matches</span><span class="macro">!</span>(<span class="ident">tx</span>, <span class="prelude-val">Ok</span>(<span class="kw">_</span>));
   <span class="kw">let</span> <span class="ident">tx</span> <span class="op">=</span> <span class="ident">tx</span>.<span class="ident">unwrap</span>();
   <span class="macro">assert_eq</span><span class="macro">!</span>(<span class="ident">tx</span>.<span class="ident">version</span>, <span class="number">1</span>);
   <span class="macro">assert_eq</span><span class="macro">!</span>(<span class="ident">tx</span>.<span class="ident">ins</span>.<span class="ident">len</span>(), <span class="number">2</span>);
   <span class="macro">assert_eq</span><span class="macro">!</span>(<span class="ident">tx</span>.<span class="ident">outs</span>.<span class="ident">len</span>(), <span class="number">2</span>);
   <span class="macro">assert_eq</span><span class="macro">!</span>(<span class="ident">tx</span>.<span class="ident">locktime</span>.<span class="ident">is_no_lock</span>(), <span class="bool-val">true</span>);

   <span class="macro">assert_eq</span><span class="macro">!</span>(::<span class="ident">ui</span>::<span class="ident">bitcoin</span>::<span class="ident">uint256_to_hex</span>(<span class="kw-2">&amp;</span><span class="ident">tx</span>.<span class="ident">ins</span>[<span class="number">0</span>].<span class="ident">prevout</span>.<span class="ident">txid</span>).<span class="ident">unwrap</span>(), <span class="string">&quot;4d6da9420d472b6b52c36eee132d87448bf160d8839a58afdd2add6f6adfc8d8&quot;</span>);
   <span class="macro">assert_eq</span><span class="macro">!</span>(<span class="ident">tx</span>.<span class="ident">ins</span>[<span class="number">0</span>].<span class="ident">prevout</span>.<span class="ident">n</span>, <span class="number">0</span>);
   <span class="macro">assert_eq</span><span class="macro">!</span>(<span class="ident">tx</span>.<span class="ident">ins</span>[<span class="number">0</span>].<span class="ident">is_sequence_final</span>(), <span class="bool-val">true</span>);
   <span class="macro">assert_eq</span><span class="macro">!</span>(::<span class="ident">ui</span>::<span class="ident">bitcoin</span>::<span class="ident">script_to_hex</span>(<span class="kw-2">&amp;</span><span class="ident">tx</span>.<span class="ident">ins</span>[<span class="number">0</span>].<span class="ident">script_sig</span>).<span class="ident">unwrap</span>(), <span class="string">&quot;483045022100b31557e47191936cb14e013fb421b1860b5e4fd5d2bc5ec1938f4ffb1651dc8902202661c2920771fd29dd91cd4100cefb971269836da4914d970d333861819265ba014104c54f8ea9507f31a05ae325616e3024bd9878cb0a5dff780444002d731577be4e2e69c663ff2da922902a4454841aa1754c1b6292ad7d317150308d8cce0ad7ab&quot;</span>);

   <span class="macro">assert_eq</span><span class="macro">!</span>(::<span class="ident">ui</span>::<span class="ident">bitcoin</span>::<span class="ident">uint256_to_hex</span>(<span class="kw-2">&amp;</span><span class="ident">tx</span>.<span class="ident">ins</span>[<span class="number">1</span>].<span class="ident">prevout</span>.<span class="ident">txid</span>).<span class="ident">unwrap</span>(), <span class="string">&quot;b220a19ba645c021f0cf501435fd6c3b4db960325d0834612612a5684ffab32a&quot;</span>);
   <span class="macro">assert_eq</span><span class="macro">!</span>(<span class="ident">tx</span>.<span class="ident">ins</span>[<span class="number">1</span>].<span class="ident">prevout</span>.<span class="ident">n</span>, <span class="number">0</span>);
   <span class="macro">assert_eq</span><span class="macro">!</span>(<span class="ident">tx</span>.<span class="ident">ins</span>[<span class="number">1</span>].<span class="ident">is_sequence_final</span>(), <span class="bool-val">true</span>);
   <span class="macro">assert_eq</span><span class="macro">!</span>(::<span class="ident">ui</span>::<span class="ident">bitcoin</span>::<span class="ident">script_to_hex</span>(<span class="kw-2">&amp;</span><span class="ident">tx</span>.<span class="ident">ins</span>[<span class="number">1</span>].<span class="ident">script_sig</span>).<span class="ident">unwrap</span>(), <span class="string">&quot;4830450220230110bc99ef311f1f8bda9d0d968bfe5dfa4af171adbef9ef71678d658823bf022100f956d4fcfa0995a578d84e7e913f9bb1cf5b5be1440bcede07bce9cd5b38115d014104c6ec27cffce0823c3fecb162dbd576c88dd7cda0b7b32b0961188a392b488c94ca174d833ee6a9b71c0996620ae71e799fc7c77901db147fa7d97732e49c8226&quot;</span>);

   <span class="macro">assert_eq</span><span class="macro">!</span>(<span class="ident">tx</span>.<span class="ident">outs</span>[<span class="number">0</span>].<span class="ident">value</span>, <span class="number">39000000</span>);
   <span class="macro">assert_eq</span><span class="macro">!</span>(::<span class="ident">ui</span>::<span class="ident">bitcoin</span>::<span class="ident">script_to_hex</span>(<span class="kw-2">&amp;</span><span class="ident">tx</span>.<span class="ident">outs</span>[<span class="number">0</span>].<span class="ident">script_pubkey</span>).<span class="ident">unwrap</span>(), <span class="string">&quot;76a914a3d89c53bb956f08917b44d113c6b2bcbe0c29b788ac&quot;</span>);
   <span class="macro">assert_eq</span><span class="macro">!</span>(<span class="ident">tx</span>.<span class="ident">outs</span>[<span class="number">1</span>].<span class="ident">value</span>, <span class="number">155000000</span>);
   <span class="macro">assert_eq</span><span class="macro">!</span>(::<span class="ident">ui</span>::<span class="ident">bitcoin</span>::<span class="ident">script_to_hex</span>(<span class="kw-2">&amp;</span><span class="ident">tx</span>.<span class="ident">outs</span>[<span class="number">1</span>].<span class="ident">script_pubkey</span>).<span class="ident">unwrap</span>(), <span class="string">&quot;76a91408338e1d5e26db3fce21b011795b1c3c8a5a5d0788ac&quot;</span>);
}

<span class="attribute">#[<span class="ident">test</span>]</span>
<span class="kw">fn</span> <span class="ident">test_serialize_transaction</span>() {
   <span class="kw">use</span> <span class="kw">super</span>::{<span class="ident">UInt256</span>, <span class="ident">Script</span>, <span class="ident">TxIn</span>, <span class="ident">TxOutPoint</span>};

   <span class="kw">let</span> <span class="kw-2">mut</span> <span class="ident">tx</span> <span class="op">=</span> <span class="ident">Tx</span>::<span class="ident">new_null</span>();
   <span class="ident">tx</span>.<span class="ident">ins</span>.<span class="ident">push</span>(<span class="ident">TxIn</span> {
      <span class="ident">prevout</span>: <span class="ident">TxOutPoint</span> {
         <span class="ident">txid</span>: ::<span class="ident">ui</span>::<span class="ident">bitcoin</span>::<span class="ident">hex_to_uint256</span>(<span class="string">&quot;4d6da9420d472b6b52c36eee132d87448bf160d8839a58afdd2add6f6adfc8d8&quot;</span>).<span class="ident">unwrap</span>(),
         <span class="ident">n</span>:<span class="number">0</span>
      },
      <span class="ident">script_sig</span>: ::<span class="ident">ui</span>::<span class="ident">bitcoin</span>::<span class="ident">hex_to_script</span>(<span class="string">&quot;483045022100b31557e47191936cb14e013fb421b1860b5e4fd5d2bc5ec1938f4ffb1651dc8902202661c2920771fd29dd91cd4100cefb971269836da4914d970d333861819265ba014104c54f8ea9507f31a05ae325616e3024bd9878cb0a5dff780444002d731577be4e2e69c663ff2da922902a4454841aa1754c1b6292ad7d317150308d8cce0ad7ab&quot;</span>).<span class="ident">unwrap</span>(),
      <span class="ident">sequence</span>: <span class="number">0xFFFFFFFFu32</span>,
   } );
   <span class="ident">tx</span>.<span class="ident">ins</span>.<span class="ident">push</span>(<span class="ident">TxIn</span> {
      <span class="ident">prevout</span>: <span class="ident">TxOutPoint</span> {
         <span class="ident">txid</span>: ::<span class="ident">ui</span>::<span class="ident">bitcoin</span>::<span class="ident">hex_to_uint256</span>(<span class="string">&quot;b220a19ba645c021f0cf501435fd6c3b4db960325d0834612612a5684ffab32a&quot;</span>).<span class="ident">unwrap</span>(),
         <span class="ident">n</span>:<span class="number">0</span>
      },
      <span class="ident">script_sig</span>: ::<span class="ident">ui</span>::<span class="ident">bitcoin</span>::<span class="ident">hex_to_script</span>(<span class="string">&quot;4830450220230110bc99ef311f1f8bda9d0d968bfe5dfa4af171adbef9ef71678d658823bf022100f956d4fcfa0995a578d84e7e913f9bb1cf5b5be1440bcede07bce9cd5b38115d014104c6ec27cffce0823c3fecb162dbd576c88dd7cda0b7b32b0961188a392b488c94ca174d833ee6a9b71c0996620ae71e799fc7c77901db147fa7d97732e49c8226&quot;</span>).<span class="ident">unwrap</span>(),
      <span class="ident">sequence</span>: <span class="number">0xFFFFFFFFu32</span>,
   } );
   <span class="ident">tx</span>.<span class="ident">outs</span>.<span class="ident">push</span>(<span class="ident">TxOut</span> {
      <span class="ident">value</span>: <span class="number">39000000</span>,
      <span class="ident">script_pubkey</span>: ::<span class="ident">ui</span>::<span class="ident">bitcoin</span>::<span class="ident">hex_to_script</span>(<span class="string">&quot;76a914a3d89c53bb956f08917b44d113c6b2bcbe0c29b788ac&quot;</span>).<span class="ident">unwrap</span>(),
   });
   <span class="ident">tx</span>.<span class="ident">outs</span>.<span class="ident">push</span>(<span class="ident">TxOut</span> {
      <span class="ident">value</span>: <span class="number">155000000</span>,
      <span class="ident">script_pubkey</span>: ::<span class="ident">ui</span>::<span class="ident">bitcoin</span>::<span class="ident">hex_to_script</span>(<span class="string">&quot;76a91408338e1d5e26db3fce21b011795b1c3c8a5a5d0788ac&quot;</span>).<span class="ident">unwrap</span>(),
   });

   <span class="macro">assert_eq</span><span class="macro">!</span>(::<span class="ident">ui</span>::<span class="ident">bitcoin</span>::<span class="ident">tx_to_hex</span>(<span class="kw-2">&amp;</span><span class="ident">tx</span>).<span class="ident">unwrap</span>(), <span class="string">&quot;0100000002d8c8df6a6fdd2addaf589a83d860f18b44872d13ee6ec3526b2b470d42a96d4d000000008b483045022100b31557e47191936cb14e013fb421b1860b5e4fd5d2bc5ec1938f4ffb1651dc8902202661c2920771fd29dd91cd4100cefb971269836da4914d970d333861819265ba014104c54f8ea9507f31a05ae325616e3024bd9878cb0a5dff780444002d731577be4e2e69c663ff2da922902a4454841aa1754c1b6292ad7d317150308d8cce0ad7abffffffff2ab3fa4f68a512266134085d3260b94d3b6cfd351450cff021c045a69ba120b2000000008b4830450220230110bc99ef311f1f8bda9d0d968bfe5dfa4af171adbef9ef71678d658823bf022100f956d4fcfa0995a578d84e7e913f9bb1cf5b5be1440bcede07bce9cd5b38115d014104c6ec27cffce0823c3fecb162dbd576c88dd7cda0b7b32b0961188a392b488c94ca174d833ee6a9b71c0996620ae71e799fc7c77901db147fa7d97732e49c8226ffffffff02c0175302000000001976a914a3d89c53bb956f08917b44d113c6b2bcbe0c29b788acc01c3d09000000001976a91408338e1d5e26db3fce21b011795b1c3c8a5a5d0788ac00000000&quot;</span>);
   
   <span class="macro">assert_eq</span><span class="macro">!</span>(::<span class="ident">ui</span>::<span class="ident">bitcoin</span>::<span class="ident">tx_to_txid</span>(<span class="kw-2">&amp;</span><span class="ident">tx</span>).<span class="ident">unwrap</span>(), <span class="string">&quot;9021b49d445c719106c95d561b9c3fac7bcb3650db67684a9226cd7fa1e1c1a0&quot;</span>);
}
</pre></div>
</section><section id="search" class="content hidden"></section><section class="footer"></section><aside id="help" class="hidden"><div><h1 class="hidden">Help</h1><div class="shortcuts"><h2>Keyboard Shortcuts</h2><dl><dt><kbd>?</kbd></dt><dd>Show this help dialog</dd><dt><kbd>S</kbd></dt><dd>Focus the search field</dd><dt><kbd>↑</kbd></dt><dd>Move up in search results</dd><dt><kbd>↓</kbd></dt><dd>Move down in search results</dd><dt><kbd>↹</kbd></dt><dd>Switch tab</dd><dt><kbd>&#9166;</kbd></dt><dd>Go to active search result</dd><dt><kbd>+</kbd></dt><dd>Expand all sections</dd><dt><kbd>-</kbd></dt><dd>Collapse all sections</dd></dl></div><div class="infos"><h2>Search Tricks</h2><p>Prefix searches with a type followed by a colon (e.g., <code>fn:</code>) to restrict the search to a given type.</p><p>Accepted types are: <code>fn</code>, <code>mod</code>, <code>struct</code>, <code>enum</code>, <code>trait</code>, <code>type</code>, <code>macro</code>, and <code>const</code>.</p><p>Search functions by type signature (e.g., <code>vec -> usize</code> or <code>* -> vec</code>)</p><p>Search multiple things at once by splitting your query with comma (e.g., <code>str,u8</code> or <code>String,struct:Vec,test</code>)</p></div></div></aside><script>window.rootPath = "../../../../";window.currentCrate = "fiatproof";</script><script src="../../../../aliases.js"></script><script src="../../../../main.js"></script><script src="../../../../source-script.js"></script><script src="../../../../source-files.js"></script><script defer src="../../../../search-index.js"></script></body></html>